:100000000C9454010C9471010C9471010C947101C5
:100010000C9471010C9471010C9471010C94710198
:100020000C9471010C9471010C9471010C94870172
:100030000C9471010C9471010C9471010C94710178
:100040000C9471010C9471010C9426050C944C05D0
:100050000C9471010C9471010C9471010C94710158
:100060000C9471010C94710113AE00A8013F2001A2
:10007000004000D30100A100C800DA011281017F15
:10008000A400A600D50180D901C2DB01208D011496
:100090002E002102007F22020007AF0011AE00D522
:1000A0000180A8011FD3010040008D011420010030
:1000B000A100C800DA000281018FD901C2DB014032
:1000C000A400A6002E00AF000000000000818118EF
:1000D00081810007000700147F147F14242A7F2ADF
:1000E00012231308646236495522500005030000AC
:1000F000001C2241000041221C0014083E08140884
:10010000083E080800503000000808080808006091
:1001100060000020100804023E5149453E00427F25
:10012000400042615149462141454B311814127F2C
:100130001027454545393C4A4949300171090503B5
:100140003649494936064949291E0036360000001D
:1001500056360000081422410014141414140041EF
:100160002214080201510906324979413E7E1111DB
:10017000117E7F494949363E414141227F4141221A
:100180001C7F494949417F090909013E4149497A92
:100190007F0808087F00417F41002040413F017FE8
:1001A000081422417F404040407F020C027F7F04C0
:1001B00008107F3E4141413E7F090909063E4151F9
:1001C000215E7F09192946464949493101017F01CC
:1001D000013F4040403F1F2040201F3F4038403FEC
:1001E0006314081463070870080761514945430008
:1001F0007F41410002040810200041417F000402B9
:1002000001020440404040400001020400205454D8
:1002100054787F484444383844444420384444485F
:100220007F3854545418087E0901020C5252523E31
:100230007F0804047800447D40002040443D007F56
:100240001028440000417F40007C041804787C089A
:1002500004047838444444387C14141408081414F2
:10026000147C7C080404084854545420043F44403F
:10027000203C4040207C1C2040201C3C4030403C26
:1002800044281028440C5050503C4464544C4400C2
:100290000836410000007F000000413608001008C9
:1002A000081008000000000011241FBECFEFD8E0A6
:1002B000DEBFCDBF12E0A0E0B1E0EEE3FCE202C0A1
:1002C00005900D92AA30B107D9F726E0AAE0B2E076
:1002D00001C01D92A036B207E1F70E9493070C946B
:1002E00006160C940000E1E8F0E0808188608083CD
:1002F000AFE6B0E08C9182608C938AE196E09093B7
:1003000089008093880080818560808308958F9321
:1003100081E080930A028F911895BF92CF92DF926D
:10032000EF92FF920F931F93CF93DF93182FB62E68
:10033000D42FC52F80ED0E944A04812F0E94D7043C
:1003400085E38A95F1F7000081ED0E944A040D2FA4
:100350001C2FEB2CF12CC0E0D0E06701E1E0CE1ABD
:10036000D108CE15DF0569F40E94C8048B2DDF91FA
:10037000CF911F910F91FF90EF90DF90CF90BF90A2
:100380000895CC16DD0639F40E940E05F80181931C
:100390008F012196E6CF0E94F604F8CFFF920F93CB
:1003A0001F93CF93DF93C82F062FF42E152F80EDC8
:1003B0000E944A048C2F0E94D704CF2DD12F0C0FFE
:1003C0001D2F111DC017D10739F4DF91CF911F9157
:1003D0000F91FF900C94C80489910E94D704F2CF2A
:1003E00061110C948D0180E00895AB0161E00C94E3
:1003F0008D0161110C94CE010895CF93DF930F927C
:10040000CDB7DEB76983AE014F5F5F4F61E00E94F9
:10041000CE010F90DF91CF910895EF92FF920F934D
:100420001F93CF93DF930F92CDB7DEB7082F162F10
:10043000E42EF22E1982BE016F5F7F4F0E94F501FC
:10044000811549F1812F8E19990BBC016F5F7F4F88
:1004500041E050E002C0440F551FEA94E2F74150DA
:100460005109062E01C0440F0A94EAF72F2D01C04E
:10047000220F6A95EAF7642F609589816823242307
:10048000622B802F0F90DF91CF911F910F91FF90E2
:10049000EF900C94FD010F90DF91CF911F910F9180
:1004A000FF90EF900895EF92FF920F931F93CF93D9
:1004B000DF930F92CDB7DEB7162F042F79014115C8
:1004C00069F1BE016F5F7F4F0E94F5018115F1F068
:1004D000212F201B330BB9016F5F7F4F41E050E0AC
:1004E00002C0440F551F0A95E2F741505109062EEC
:1004F00001C0440F0A94EAF72981242330E002C0A6
:10050000359527956A95E2F7F70120830F90DF91E3
:10051000CF911F910F91FF90EF90089580E0F6CF5B
:10052000FF920F931F93CF93DF930F92CDB7DEB758
:10053000F62E8A01BE016F5F7F4F0E94F50121E018
:1005400030E001C0220FFA94EAF769816223F801D2
:1005500060830F90DF91CF911F910F91FF900895CD
:1005600041110C940D020895FF920F931F93CF93A6
:10057000DF930F92CDB7DEB7182FF62E042FBE01F2
:100580006F5F7F4F0E94F50121E030E001C0220F34
:10059000FA94EAF76981011551F0622B812F0F90CF
:1005A000DF91CF911F910F91FF900C94FD01209549
:1005B0006223F4CF1F93CF93DF93182FEB0180EDCD
:1005C0000E944A04812F0E94D7048D2F0E94D704D5
:1005D0008C2F0E94D704DF91CF911F910C94C804F7
:1005E00040E066E08BE60C94B40241E066E08BE606
:1005F0000C94B4022BE032E046E066E085E70E940E
:10060000530290910B0281E0943309F080E0089549
:100610000E94440425E32A95F1F700008FEF91EE44
:1006200024E0815090402040E1F700C000000E948B
:10063000F0028FE39CE90197F1F700C0000021E090
:1006400043E062E08BE60E940D0223E043E062E0BB
:100650008AE10E940D0264E089E10E94FD0123E02D
:1006600042E064E08BE10E940D0220E042E064E0A1
:100670008CE10C940D026F927F928F929F92AF92B9
:10068000BF92CF92DF92EF92FF920F931F93CF937F
:10069000DF934C015B016A01E9014BE052E06EE03F
:1006A0008BE30E94F001EBE0F2E090818181D401C4
:1006B0008D939C9392818381D5018D939C9394819A
:1006C0008581D6018D939C939085818599838883BC
:1006D00092858385D8018D939C9394858585F701B8
:1006E00091838083DF91CF911F910F91FF90EF90C5
:1006F000DF90CF90BF90AF909F908F907F906F9042
:1007000008952F923F924F925F926F927F928F92B5
:100710009F92AF92BF92CF92DF92EF92FF920F9390
:100720001F93CF93DF93CDB7DEB72C970FB6F89416
:10073000DEBF0FBECDBF3C014B015A01690128014C
:100740001701CE0101967C018E010D5F1F4F9E01A6
:100750002B5F3F4FAE01495F5F4FBE01675F7F4F29
:100760000A960E943B036B857C85072E000C880B44
:10077000990B0E948F1020E030E040E858E30E947F
:100780004A11F301608371838283938369857A853B
:10079000072E000C880B990B0E948F1020E030E090
:1007A00040E858E30E944A11F40160837183828318
:1007B00093836F817885072E000C880B990B0E941C
:1007C0008F1020E030E040E858E30E944A11F50124
:1007D00060837183828393836D817E81665D7F4FA9
:1007E000072E000C880B990B0E948F1023E333E334
:1007F00043E851E40E94E50FF60160837183828330
:1008000093836B817C8169507109072E000C880BE2
:10081000990B0E948F1023E333E343E851E40E94D5
:10082000E50FF201608371838283938369817A810A
:10083000635E7F4F072E000C880B990B0E948F1070
:1008400023E333E343E851E40E94E50FF1016083C1
:100850007183828393832C960FB6F894DEBF0FBE0C
:10086000CDBFDF91CF911F910F91FF90EF90DF905F
:10087000CF90BF90AF909F908F907F906F905F9040
:100880004F903F902F9008951092B90088E4809384
:10089000B800089594EA9093BC004FEF50E060E0F8
:1008A00070E09091BC0097FD27C04150510961094B
:1008B0007109B8F79091B900987F983011F0903194
:1008C000F9F48093BB0084E88093BC008FEF90E044
:1008D000A0E0B0E02091BC0027FD14C00197A10961
:1008E000B109C0F79091B900987F983119F081E073
:1008F000903409F480E00895452B462B472BD1F620
:1009000081E00895892B8A2B8B2B61F7F9CF44EA7C
:1009100054E84093BC0020E030E09091BC0097FD8B
:1009200006C02F5F3F4F211591E03907B1F7909135
:10093000B900987F983011F0903159F78093BB003F
:100940005093BC0020E030E09091BC0097FD06C0C1
:100950002F5F3F4F211591E03907B1F79091B90012
:10096000987F903211F0983581F494E99093BC000F
:1009700020E030E09091BC0094FFCBCF2F5F3F4F41
:10098000211591E03907B1F7C4CF08950C944A04BA
:1009900084E98093BC0080E090E02091BC0024FFBB
:1009A00005C00196811521E09207B9F7089580935B
:1009B000BB0084E88093BC008FEF90E0A0E0B0E043
:1009C0002091BC0027FD0CC00197A109B109C0F717
:1009D0009091B900987F81E0983239F480E00895D1
:1009E000892B8A2B8B2BA1F781E0089584EC8093CF
:1009F000BC008FEF90E0A0E0B0E02091BC0027FDAC
:100A000007C00197A109B109C0F78091BB00089503
:100A1000892B8A2B8B2BC9F780E0089584E880937B
:100A2000BC008FEF90E0A0E0B0E02091BC0027FD7B
:100A300007C00197A109B109C0F78091BB000895D3
:100A4000892B8A2B8B2BC9F780E008952F932FB722
:100A50002F938F939F93EF93FF938091C00090917A
:100A6000C600E0911B02EF5FEF7120911A022E1772
:100A700089F08871E0931B02F0E0E25EFD4F908305
:100A800080931902FF91EF919F918F912F912FBF2A
:100A90002F91189582E0F4CF8F938FB78F939F9308
:100AA000EF93FF9390911D0280911C02981799F08B
:100AB000E0911C02EF5FEF71E0931C02F0E0E25C5A
:100AC000FD4F80818093C600FF91EF919F918F91A0
:100AD0008FBF8F9118958091C1008F7D8093C10049
:100AE000F3CF9C0110921D0210921C0210921B0267
:100AF00010921A0297FF04C082E08093C0003F77F3
:100B00003093C5002093C40088E98093C10086E03B
:100B10008093C200089590911B0280911A02981749
:100B200091F0E0911A02EF5FEF71E0931A02F0E0AA
:100B3000E25EFD4F20818091190290E0982F882776
:100B4000820F911D089580E091E0089590911D021B
:100B50009F5F9F7120911C022917E1F3E92FF0E0BC
:100B6000E25CFD4F808390931D028091C100806202
:100B70008093C1000895CF93DF93EC018991811197
:100B800003C0DF91CF9108950E94A605F7CFCF93C0
:100B9000DF93EC01FE0184912196811103C0DF9166
:100BA000CF9108950E94A605F5CF80911B02209158
:100BB0001A0290E04F96821B91096FE170E00E944B
:100BC0009312089580911A0280931B020895CF9387
:100BD000C82F0E947E07811104C08C2FCF910C94E6
:100BE0008007CF910895CF93C82F80E80E9489078E
:100BF000811104C08C2FCF910C948907CF91089557
:100C0000EF92FF921F93CF93DF93C82FE8E6F0E0B7
:100C100014910E947D078C2F0E94E705C9E6D0E061
:100C20008115B1F0DF91CF911F91FF90EF90089562
:100C30007E018FEFE81AF80AFE0184910E94F30505
:100C40008111F0CFF701E4902296E11007C0115016
:100C50001111EECF0E94910780E0E4CFFE01849154
:100C60000E94F3052196EA94811579F3DBCFCF93A7
:100C70000E94E705C82F811108C086EA0E94F3058B
:100C8000C82F811102C00E9491078C2FCF91089527
:100C9000CF930E94E705C82F811108C087EA0E9400
:100CA000F305C82F811102C00E9491078C2FCF91AC
:100CB00008950F931F93CF930E94E705C82F8111CA
:100CC00016C080E40E948907C82F811110C000E679
:100CD00012E0F80181918F010E948907C82F8111CC
:100CE00006C0F6E000361F07A1F70E9491078C2F7F
:100CF000CF911F910F910895E0E6F2E080E094E03B
:100D0000DF019C011D9221503040E1F7089590E8E9
:100D1000699FB0011124680F711D70935F02609389
:100D20005E02089520915E0230915F02C901880F32
:100D3000892F881F990B91952A5F482F4795442743
:100D40004795241B27FF04C0883070F4863010F0CC
:100D500080E008958F5F20E8829FC0011124909366
:100D60005F0280935E02F4CF81E00895CF93C82F95
:100D70000E949206813001F120915E0230915F0263
:100D80008C2FCC0F990B809745E0489FF001499F2D
:100D9000F00D1124E853FF4FD901A05ABD4F85E053
:100DA00094919D93815031968111FACF2A5F3F4FE4
:100DB00030935F0220935E02CF910895CF93DF932B
:100DC000EC018991811103C0DF91CF9108950E94B8
:100DD000B606F7CF87FD26C0613420F5962F96958D
:100DE0009695969520E8929FF0011124E80FF11D49
:100DF0009F012F5F3F4F30935F0220935E02E05AC6
:100E0000FD4F70E088E0989F60197109112421E07E
:100E100030E001C0220F6A95EAF78081822B80833F
:100E200080E0089581E008958F929F92AF92BF92E3
:100E3000CF92DF92EF92FF920F931F93CF93DF93A6
:100E4000D82FA62EC42FB22E70E0E82FF0E0262F68
:100E5000281B330BC9012B2D30E050E0AB2DA41B18
:100E6000BB0B8D019924939497FF05C0CF01861B7E
:100E7000970B99249A948824839417FF05C08A01BC
:100E8000021B130B88248A947801EE0CFF1C6C0162
:100E9000CC0CDD1C081719073CF58701081B190B42
:100EA0006C2F8D2F0E94EA06DA110EC080E0DF91D0
:100EB000CF911F910F91FF90EF90DF90CF90BF9057
:100EC000AF909F908F900895D90D17FD03C0C80D66
:100ED0000C191D090E0D1F1DE3CFC80D10161106AC
:100EE0001CF0D90D0E0D1F1D0C191D096C2F8D2F17
:100EF0000E94EA06CB11F1CFD9CF089580E0089582
:100F0000880F0E944A04982F81E0911101C080E06F
:100F100008950E94D704982F81E0911101C080E0CC
:100F200008950C94C804CDB7DEB7CD50D1400FB6AC
:100F3000F894DEBF0FBECDBF0E9408038CE30E9471
:100F400000062FEF39E648E1215030404040E1F7FC
:100F500000C0000087E690E00E9471050E947301C6
:100F6000789480E091E00E94BB0580ED0E944A04E5
:100F70008111AFC784E291E00E94BB050E94C804C2
:100F80000E947C0660E080E00E94870685E491E094
:100F90000E94DE0634EFC32EDD24D394812C912CE5
:100FA0005401412C512C3201C556DF4F1882198251
:100FB0001A821B82CB59D040CE0181579F4F7C01B2
:100FC0008E010F561F4F9E012D563F4FAE014B56BF
:100FD0005F4FBE0169567F4F0A960E943B03CD5674
:100FE000DF4F88819981C359D040092E000CAA0B8C
:100FF000BB0BC556DF4F288139814A815B81CB59B4
:10100000D040280F391F4A1F5B1FC556DF4F28836A
:1010100039834A835B83CB59D040CF56DF4F8881D9
:101020009981C159D040092E000CAA0BBB0B480E68
:10103000591E6A1E7B1EC157DF4F88819981CF5888
:10104000D040092E000CAA0BBB0B880E991EAA1EBD
:10105000BB1E8FE39FE10197F1F700C0000091E014
:10106000C91AD10809F0A8CF84EFC82EDD24D39483
:10107000E12CF12CC556DF4F688179818A819B81F3
:10108000CB59D040A70196010E94A712C652DF4F4C
:10109000288339834A835B83CA5DD040C301B20190
:1010A000A70196010E94A712C252DF4F28833983FD
:1010B0004A835B83CE5DD040C501B401A701960190
:1010C0000E94A712CE51DF4F288339834A835B8366
:1010D000C25ED040CD53DF4F188219821A821B8224
:1010E000C35CD040C555DF4F188219821A821B821B
:1010F000CB5AD040C556DF4F188219821A821B8204
:10110000CB59D04094E6492E512C612C712C28EEFD
:10111000822E23E0922EA12CB12C80910A028115FF
:10112000E1F310920A02DE01A157BF4F7D018E014B
:101130000F561F4F9E012D563F4FAE014B565F4F2E
:10114000BE0169567F4FCE0187569F4F0E943B03D9
:10115000C756DF4FA881B981C959D04028EE33E086
:101160000E94C61220E030E440E050E00E94A71246
:10117000C155DF4F288339834A835B83CF5AD040E0
:10118000C956DF4FA881B981C759D04028EE33E056
:101190000E94C61220E030E440E050E00E94A71216
:1011A000CD54DF4F288339834A835B83C35BD040B0
:1011B000CB56DF4FA881B981C559D04028EE33E026
:1011C0000E94C61220E030E440E050E00E94A712E6
:1011D000C954DF4F288339834A835B83C75BD04080
:1011E000CD56DF4F28813981C359D040032E000CE2
:1011F000440B550BC652DF4F88819981AA81BB8170
:10120000CA5DD040281B390B4A0B5B0BA0E1B7E24B
:101210000E94CD12CD55DF4F688379838A839B83EB
:10122000C35AD04024EA30E040E050E00E94A712C8
:10123000C953DF4F288339834A835B83C75CD0401F
:10124000CF56DF4F28813981C159D040032E000C81
:10125000440B550BC252DF4F88819981AA81BB8113
:10126000CE5DD040281B390B4A0B5B0BA0E1B7E2E7
:101270000E94CD12C554DF4F688379838A839B8394
:10128000CB5BD04024EA30E040E050E00E94A7125F
:10129000C553DF4F288339834A835B83CB5CD040BF
:1012A000C157DF4F28813981CF58D040032E000C21
:1012B000440B550BCE51DF4F88819981AA81BB81A8
:1012C000C25ED040281B390B4A0B5B0BA0E1B7E292
:1012D0000E94CD1224EA30E040E050E00E94A712C4
:1012E000C156DF4F288339834A835B83CF59D0406F
:1012F000C954DF4F288139814A815B81C75BD04067
:10130000CA01B9010E948312C955DF4F68837983EE
:101310008A839B83C75AD040C155DF4F28813981CA
:101320004A815B81CF5AD040CA01B9010E94831221
:10133000C955DF4F288139814A815B81C75AD04026
:10134000620F731F841F951F0E948F100E94BD1192
:101350008B016C01CD54DF4F688179818A819B813B
:10136000C35BD0400E948F109801A6010E94860F97
:10137000362E272ECF53DF4F8883C15CD040CE530B
:10138000DF4F9883C25CD040CD54DF4F2881398134
:101390004A815B81C35BD040CA01B9010E948312BC
:1013A000C955DF4F288139814A815B81C75AD040B6
:1013B000620F731F841F951F0E948F100E94BD1122
:1013C0007B018C01C155DF4F688179818A819B81C6
:1013D000CF5AD04090958095709561957F4F8F4FF3
:1013E0009F4F0E948F109701A8010E94860F20E056
:1013F00038EC4FE258E40E944A112BED3FE049E4FB
:1014000050E40E94E50F0E9457109B01AC01AAE036
:10141000B0E00E94CD126B017C01CD55DF4F688199
:1014200079818A819B81C35AD04028E636E040E02A
:1014300050E00E94A712C556DF4F88819981AA818A
:10144000BB81CB59D040280F391F4A1F5B1FAAE52B
:10145000B0E00E94CD126C0D7D1D8E1D9F1DA3015D
:1014600092010E94A712CD55DF4F2883C35AD04066
:10147000C955DF4F3883C75AD040C154DF4F488326
:10148000CF5BD040C054DF4F5883C05CD040C556BE
:10149000DF4F2883CB59D040C456DF4F3883CC5917
:1014A000D040C356DF4F4883CD59D040C256DF4F9E
:1014B0005883CE59D04020E038EC4FE258E4632DF9
:1014C000722DCF53DF4F8881C15CD040CE53DF4FA8
:1014D0009881C25CD0400E944A112BED3FE049E464
:1014E00050E40E94E50F0E9457109B01AC01AAE056
:1014F000B0E00E94CD126B017C01C554DF4F6881C2
:1015000079818A819B81CB5BD04028E636E040E040
:1015100050E00E94A712C555DF4F88819981AA81AA
:10152000BB81CB5AD040280F391F4A1F5B1FAAE549
:10153000B0E00E94CD126C0D7D1D8E1D9F1DA3017C
:1015400092010E94A71279018A01C555DF4F2883B5
:10155000CB5AD040C455DF4FF882CC5AD040C35547
:10156000DF4F4883CD5AD040C255DF4F1883CE5A43
:10157000D040C156DF4F88819981AA81BB81CF5964
:10158000D0408C509E4FAF4FBF4F893E9340A10536
:10159000B10508F4A3C4C156DF4F6881CF59D040CC
:1015A000C056DF4F7881C05AD040CF55DF4F888179
:1015B000C15AD040CE55DF4F9881C25AD0402AE060
:1015C00030E040E050E00E94A712CD53DF4F888109
:1015D0009981AA81BB81C35CD040820F931FA41F55
:1015E000B51FCD53DF4F88839983AA83BB83C35C28
:1015F000D040BC01CD01A50194010E94A712D22EBA
:10160000C32EC554DF4F4883CB5BD040CF53DF4F51
:101610005883C15CD04097FF07C090958095709526
:1016200061957F4F8F4F9F4FA30192010E94A71298
:10163000CE53DF4F2883C25CD040C153DF4F388385
:10164000CF5CD040342E252EB701C801A5019401EE
:101650000E94A712F22EE32EC053DF4F4883C05DD5
:10166000D040CF52DF4F5883C15DD04097FF07C0B5
:1016700090958095709561957F4F8F4F9F4FA301F7
:1016800092010E94A712CE52DF4F2883C25DD04044
:10169000CD52DF4F3883C35DD040CC52DF4F4883FB
:1016A000C45DD040CB52DF4F5883C55DD040CD558F
:1016B000DF4F6881C35AD040C955DF4F7881C75A80
:1016C000D040C154DF4F8881CF5BD040C054DF4F42
:1016D0009881C05CD040A50194010E94A712CD550D
:1016E000DF4F2883C35AD040C955DF4F3883C75ACC
:1016F000D040C154DF4F4883CF5BD040C054DF4F50
:101700005883C05CD04097FF07C090958095709536
:1017100061957F4F8F4F9F4FA30192010E94A712A7
:10172000CA52DF4F2883C65DD040C952DF4F38838D
:10173000C75DD040C852DF4F4883C85DD040C75214
:10174000DF4F5883C95DD040C156DF4F6881798132
:101750008A819B81CF59D040A50194010E94A71294
:10176000C156DF4F2883CF59D040CA51DF4F38834D
:10177000C65ED040C951DF4F4883C75ED040C851D4
:10178000DF4F5883C85ED040C751DF4F6883C95EC2
:10179000D040C651DF4F7883CA5ED040C551DF4F7D
:1017A0008883CB5ED040C451DF4F9883CC5ED0405D
:1017B000C553DF4F688179818A819B81CB5CD040A2
:1017C000A50194010E94A712C553DF4F2883CB5C6B
:1017D000D040C351DF4F3883CD5ED040C251DF4F80
:1017E0004883CE5ED040C151DF4F5883CF5ED0409A
:1017F000C051DF4F6883C05FD040CF50DF4F788348
:10180000C15FD0408C01C953DF4F688179818A81E3
:101810009B81C75CD040A50194010E94A712C953C7
:10182000DF4F2883C75CD040CE50DF4F3883C25F84
:10183000D040CD50DF4F4883C35FD040CC50DF4F06
:101840005883C45FD040CB50DF4F6883C55FD04022
:10185000CA50DF4F7883C65FD040C950DF4F8883BE
:10186000C75FD040C850DF4F9883C85FD040C9548D
:10187000DF4F688179818A819B81C75BD040A50158
:1018800094010E94A712C954DF4F2883C75BD04040
:10189000C750DF4F3883C95FD040C650DF4F488301
:1018A000CA5FD040C550DF4F5883CB5FD040C45093
:1018B000DF4F6883CC5FD040C350DF4F7883CD5F6C
:1018C000D040C250DF4F8883CE5FD040C150DF4F41
:1018D0009883CF5FD040CD54DF4F688179818A8172
:1018E0009B81C35BD040A50194010E94A712CD54F7
:1018F000DF4F2883C35BD040C050DF4F3883C050D8
:10190000D140CF5FDE4F4883C150D140CE5FDE4F24
:101910005883C250D140CD5FDE4F6883C350D14061
:10192000CC5FDE4F7883C450D140CB5FDE4F8883DD
:10193000C550D140CA5FDE4F9883C650D140C155D3
:10194000DF4F688179818A819B81CF5AD040A50180
:1019500094010E94A712C155DF4F2883CF5AD0406F
:10196000C95FDE4F3883C750D140C85FDE4F488320
:10197000C850D140C75FDE4F5883C950D140C65FC1
:10198000DE4F6883CA50D140C55FDE4F7883CB50AD
:10199000D140C45FDE4F8883CC50D140C35FDE4F5F
:1019A0009883CD50D1402F923F92C153DF4F988101
:1019B000CF5CD0409F93CE53DF4FA881C25CD04014
:1019C000AF93CF53DF4FB881C15CD040BF93C554B4
:1019D000DF4F2881CB5BD0402F93CF92DF92CB5249
:1019E000DF4F3881C55DD0403F93CC52DF4F4881F7
:1019F000C45DD0404F93CD52DF4F5881C35DD0407E
:101A00005F93CE52DF4F8881C25DD0408F93CF521B
:101A1000DF4F9881C15DD0409F93C053DF4FA881B5
:101A2000C05DD040AF93EF92FF92C752DF4FB881B5
:101A3000C95DD040BF93C852DF4F2881C85DD040F8
:101A40002F93C952DF4F3881C75DD0403F93CA52B0
:101A5000DF4F4881C65DD0404F93C054DF4F58815F
:101A6000C05CD0405F93C154DF4F8881CF5BD040D2
:101A70008F93C955DF4F9881C75AD0409F93CD555A
:101A8000DF4FA881C35AD040AF93C751DF4F688161
:101A9000C95ED040C651DF4F7881CA5ED040C55183
:101AA000DF4F8881CB5ED040C451DF4F9881CC5E40
:101AB000D04097FF07C090958095709561957F4FB6
:101AC0008F4F9F4FA30192010E94A7125F934F93E4
:101AD0003F932F93C851DF4FB881C85ED040BF936A
:101AE000C951DF4F2881C75ED0402F93CA51DF4FC5
:101AF0003881C65ED0403F93C156DF4F4881CF59F1
:101B0000D0404F93C051DF4F6881C05FD040CF506D
:101B1000DF4F7881C15FD040C80197FF07C0909523
:101B20008095709561957F4F8F4F9F4FA3019201D4
:101B30000E94A7125F934F933F932F93C151DF4FA2
:101B40005881CF5ED0405F93C251DF4F8881CE5E17
:101B5000D0408F93C351DF4F9881CD5ED0409F938B
:101B6000C553DF4FA881CB5CD040AF93CB50DF4F44
:101B70006881C55FD040CA50DF4F7881C65FD040D2
:101B8000C950DF4F8881C75FD040C850DF4F988170
:101B9000C85FD04097FF07C090958095709561957C
:101BA0007F4F8F4F9F4FA30192010E94A7125F9317
:101BB0004F933F932F93CC50DF4FB881C45FD040F9
:101BC000BF93CD50DF4F2881C35FD0402F93CE50BD
:101BD000DF4F3881C25FD0403F93C953DF4F488108
:101BE000C75CD0404F93C450DF4F6881CC5FD0407A
:101BF000C350DF4F7881CD5FD040C250DF4F888126
:101C0000CE5FD040C150DF4F9881CF5FD04097FF6B
:101C100007C090958095709561957F4F8F4F9F4F2E
:101C2000A30192010E94A7125F934F933F932F93BA
:101C3000C550DF4F5881CB5FD0405F93C650DF4F18
:101C40008881CA5FD0408F93C750DF4F9881C95FAA
:101C5000D0409F93C954DF4FA881C75BD040AF935A
:101C6000CD5FDE4F6881C350D140CC5FDE4F7881BD
:101C7000C450D140CB5FDE4F8881C550D140CA5F90
:101C8000DE4F9881C650D14097FF07C09095809550
:101C9000709561957F4F8F4F9F4FA30192010E94D6
:101CA000A7125F934F933F932F93CE5FDE4FB88180
:101CB000C250D140BF93CF5FDE4F2881C150D14089
:101CC0002F93C050DF4F3881C050D1403F93CD5447
:101CD000DF4F4881C35BD0404F93C65FDE4F6881C2
:101CE000CA50D140C55FDE4F7881CB50D140C45F30
:101CF000DE4F8881CC50D140C35FDE4F9881CD50FC
:101D0000D14097FF07C090958095709561957F4F62
:101D10008F4F9F4FA30192010E94A7125F934F9391
:101D20003F932F93C75FDE4F5881C950D1405F93D7
:101D3000C85FDE4F8881C850D1408F93C95FDE4FA6
:101D40009881C750D1409F93C155DF4FA881CF5A8A
:101D5000D040AF938EE691E09F938F938E010F5FFB
:101D60001F4F1F930F930E941D130FB6F894DEBFF1
:101D70000FBECDBFC8010E94BB050E947C0660E07B
:101D800080E00E948706C752DF4F3881C95DD0408E
:101D90003F93C852DF4F4881C85DD0404F93C9522E
:101DA000DF4F5881C75DD0405F93CA52DF4F8881B3
:101DB000C65DD0408F93C054DF4F9881C05CD04047
:101DC0009F93C154DF4FA881CF5BD040AF93C955DB
:101DD000DF4FB881C75AD040BF93CD55DF4F288120
:101DE000C35AD0402F9388EE91E09F938F93085869
:101DF0001F4F1F930F930E941D13C8010E94DE0600
:101E000062E080E00E948706CB52DF4F3881C55DDB
:101E1000D0403F93CC52DF4F4881C45DD0404F93B8
:101E2000CD52DF4F5881C35DD0405F93CE52DF4F1C
:101E30008881C25DD0408F93CF52DF4F9881C15DC2
:101E4000D0409F93C053DF4FA881C05DD040AF9377
:101E5000EF92FF9283EF91E09F938F931F930F93E5
:101E60000E941D13C8010E94DE0664E080E00E940B
:101E700087062F923F92C153DF4FB881CF5CD0408D
:101E8000BF93CE53DF4F2881C25CD0402F93CF53F6
:101E9000DF4F3881C15CD0403F93C554DF4F48814C
:101EA000CB5BD0404F93CF92DF928EEF91E09F9328
:101EB0008F931F930F930E941D130FB6F894DEBFEC
:101EC0000FBECDBFC8010E94DE068CE30E945906FA
:101ED00024C983E591E00E94BB05FFCF60E070E07C
:101EE00080E090E06CCB0E94FA1060F080E891E016
:101EF00009F49EEF0E94011128F040E851E071F4CE
:101F00005EEF0CC00C94D0100C943B11E92FE078DC
:101F10000E94191140F3092E052AB1F3261737073D
:101F20004807590738F00E2E07F8E02569F0E0253C
:101F3000E0640AC0EF6307F8009407FADB01B90117
:101F40009D01DC01CA01AD01EF930E94FC0F0E94CC
:101F500008110E94B60F5F91552339F02BED3FE039
:101F600049E450FD49EC0C9402120895DF93DD27FB
:101F7000B92FBF7740E85FE31616170648075B07DF
:101F800018F4D92F0E9442119F938F937F936F93E0
:101F90000E94FD11E0E1FCE20E94D3100E940811B2
:101FA0002F913F914F915F910E945D11DD2351F080
:101FB0009058A2EA2AED3FE049EC5FE3D0785D2734
:101FC0000E941912DF910C9408110E94F90F0C94D1
:101FD00008110E94011158F00E94FA1040F029F4F3
:101FE0005F3F29F00C94CA1051110C943C110C94D1
:101FF000D0100E94191168F39923B1F3552391F37E
:10200000951B550BBB27AA2762177307840738F067
:102010009F5F5F4F220F331F441FAA1FA9F335D0C4
:102020000E2E3AF0E0E832D091505040E695001C78
:10203000CAF72BD0FE2F29D0660F771F881FBB1F32
:10204000261737074807AB07B0E809F0BB0B802D10
:10205000BF01FF2793585F4F3AF09E3F510578F03C
:102060000C94CA100C943C115F3FE4F3983ED4F3F7
:10207000869577956795B795F7959F5FC9F7880F10
:10208000911D9695879597F90895E1E0660F771F62
:10209000881FBB1F621773078407BA0720F0621BF3
:1020A000730B840BBA0BEE1F88F7E09508950E941E
:1020B0005E106894B1110C943C1108950E94211196
:1020C00088F09F5798F0B92F9927B751B0F0E1F0F9
:1020D000660F771F881F991F1AF0BA95C9F714C0A9
:1020E000B13091F00E943B11B1E008950C943B1186
:1020F000672F782F8827B85F39F0B93FCCF38695E2
:1021000077956795B395D9F73EF49095809570953E
:1021100061957F4F8F4F9F4F0895E89409C097FBBB
:102120003EF490958095709561957F4F8F4F9F4FAE
:102130009923A9F0F92F96E9BB279395F6958795F2
:1021400077956795B795F111F8CFFAF4BB0F11F4B5
:1021500060FF1BC06F5F7F4F8F4F9F4F16C088235C
:1021600011F096E911C0772321F09EE8872F762F92
:1021700005C0662371F096E8862F70E060E02AF0D3
:102180009A95660F771F881FDAF7880F96958795BF
:1021900097F9089597F99F6780E870E060E00895E7
:1021A0009FEF80EC0895DF93CF931F930F93FF92DF
:1021B000EF92DF927B018C01689406C0DA2EEF016A
:1021C0000E945D11FE01E894A591259135914591FC
:1021D0005591A6F3EF010E941912FE019701A80183
:1021E000DA9469F7DF90EF90FF900F911F91CF91F4
:1021F000DF91089500240A9416161706180609069A
:10220000089500240A94121613061406050608956C
:10221000092E0394000C11F4882352F0BB0F40F4F4
:10222000BF2B11F460FF04C06F5F7F4F8F4F9F4F34
:10223000089557FD9058440F551F59F05F3F71F0B6
:102240004795880F97FB991F61F09F3F79F087951D
:102250000895121613061406551FF2CF4695F1DFA6
:1022600008C0161617061806991FF1CF8695710536
:10227000610508940895E894BB2766277727CB016A
:1022800097F908959B01AC0160E070E080E89FE35E
:102290000C94E50F0E945D110C9408110E94FA1035
:1022A00038F00E94011120F0952311F00C94CA100F
:1022B0000C94D01011240C943C110E94191170F34D
:1022C000959FC1F3950F50E0551F629FF001729FDB
:1022D000BB27F00DB11D639FAA27F00DB11DAA1FEA
:1022E000649F6627B00DA11D661F829F2227B00D37
:1022F000A11D621F739FB00DA11D621F839FA00DC2
:10230000611D221F749F3327A00D611D231F849F11
:10231000600D211D822F762F6A2F11249F57504068
:102320009AF0F1F088234AF0EE0FFF1FBB1F661FE3
:10233000771F881F91505040A9F79E3F510580F0AC
:102340000C94CA100C943C115F3FE4F3983ED4F314
:10235000869577956795B795F795E7959F5FC1F750
:10236000FE2B880F911D9695879597F9089519F47E
:1023700016F40C94D0100C946E120E942111B8F334
:102380009923C9F3B6F39F57550B87FF0E947C1220
:102390000024A0E640EA900180585695979528F4CD
:1023A000805C660F771F881F20F0261737074807C5
:1023B00030F4621B730B840B202931294A2BA6951C
:1023C00017940794202531254A2758F7660F771F61
:1023D000881F20F026173707480730F4620B730B6D
:1023E000840B200D311D411DA09581F7B901842F6B
:1023F0009158880F9695879508959B01AC010C9490
:102400004A115058BB27AA270E9419120C94081190
:102410000E94FA1038F00E94011120F039F49F3F19
:1024200019F426F40C94D0100EF4E095E7FB0C940C
:10243000CA10E92F0E94191158F3BA1762077307DF
:102440008407950720F079F4A6F50C943B110EF45F
:10245000E0950B2EBA2FA02D0B01B90190010C01B4
:10246000CA01A0011124FF27591B99F0593F50F4CC
:10247000503E68F11A16F040A22F232F342F442724
:10248000585FF3CF469537952795A795F04053951C
:10249000C9F77EF41F16BA0B620B730B840BBAF0EC
:1024A0009150A1F0FF0FBB1F661F771F881FC2F757
:1024B0000EC0BA0F621F731F841F48F4879577956B
:1024C0006795B795F7959E3F08F0B0CF9395880F25
:1024D00008F09927EE0F9795879508959F3F31F063
:1024E000915020F4879577956795B795880F911D42
:1024F0009695879597F9089591505040660F771FEC
:10250000881FD2F70895DB018F939F930E94CD120D
:10251000BF91AF91A29F800D911DA39F900DB29F7F
:10252000900D1124089597FB072E16F4009407D000
:1025300077FD09D00E94D81207FC05D03EF4909593
:1025400081959F4F0895709561957F4F0895052E51
:1025500097FB1EF400940E94BE1257FD07D00E9404
:10256000EC1207FC03D04EF40C94BE12509540952B
:10257000309521953F4F4F4F5F4F0895909580952F
:10258000709561957F4F8F4F9F4F08950E940E1356
:10259000B7FF0895821B930B08950E940E13A59F09
:1025A000900DB49F900DA49F800D911D112408954E
:1025B000AA1BBB1B51E107C0AA1FBB1FA617B70769
:1025C00010F0A61BB70B881F991F5A95A9F7809585
:1025D0009095BC01CD010895A1E21A2EAA1BBB1B48
:1025E000FD010DC0AA1FBB1FEE1FFF1FA217B307DF
:1025F000E407F50720F0A21BB30BE40BF50B661FF5
:10260000771F881F991F1A9469F7609570958095B8
:1026100090959B01AC01BD01CF010895A29FB0012F
:10262000B39FC001A39F700D811D1124911DB29F06
:10263000700D811D1124911D0895AEE0B0E0E3E21C
:10264000F3E10C94DD150D891E8986E08C831A83D5
:1026500009838FEF9FE79E838D83AE01475E5F4FB7
:102660006F89788DCE0101960E9440132F813885A5
:10267000020F131FF80110822E96E4E00C94F91556
:10268000ABE0B0E0E6E4F3E10C94D2156C017B0121
:102690008A01FC0117821682838181FFD9C19AE0E9
:1026A000592EF6012381F70123FD859123FF8191A6
:1026B0007F01811509F41FC1853239F423FD9591FD
:1026C00023FF91917F01953229F4B60190E00E9499
:1026D0004115E7CF30E0912C612C712CF0E27F1690
:1026E00040F59B32D9F058F49032D1F09332F1F0AA
:1026F0009E3299F576FCFFC0689476F806C09D324C
:1027000091F09033C1F4689470F8F70123FD95912E
:1027100023FF91917F019111E1CF29C0689471F855
:10272000689472F8F2CF689473F8EFCF689474F8F5
:10273000ECCF77FC1CC080ED890F8A30C8F676FE9E
:1027400005C0959C800D1124982EDFCF659C800DCF
:102750001124682E689475F8D8CF9C3619F46894C3
:1027600077F8D3CF9C3409F44BC0983671F2892F97
:102770008F7D8554833008F445C0933609F466C0D4
:10278000933709F469C0933509F475C0943619F08C
:10279000993609F09FC0F80177FE95C0619171915B
:1027A000819191918F01272D2F76822E97FF09C05D
:1027B00090958095709561957F4F8F4F9F4F68944E
:1027C00087F82AE030E0AE014F5F5F4F5A010E9468
:1027D00071158A19A82E86FEC4C0882D8E7FA91473
:1027E00008F0BEC084FE11C182FC05C1F82DFE7E3A
:1027F0008F2EB92C882D8678811509F4BFC000C1B1
:1028000031E083CF3115F9F0085F1F4F8FE38983E3
:1028100088248394912CAE014F5F5F4F5A01E89456
:1028200077F873FC03C086149104B0F1811491040D
:10283000D1F5611409F435CFB60180E290E00E9431
:1028400041156A94F6CF0C5F1F4FE0CFF8018081ED
:1028500089830E5F1F4FDCCFF801A190B1908F01EB
:10286000692D70E076FC02C06FEF7FEFC5010E941A
:1028700036154C01D4CFF801A190B1908F01692D8C
:1028800070E076FC02C06FEF7FEFC5010E942B1550
:102890004C01689477F8C5CFB60180E290E00E94C1
:1028A00041156A94C0CFF50177FC859177FE81913F
:1028B0005F01B60190E00E94411561106A94F1E059
:1028C0008F1A9108B3CF61917191072E000C880B7C
:1028D000990B68CF872CE89484F82AE030E095378C
:1028E00039F1572D597F852E903799F058F4983546
:1028F000A9F09F36D9F0F601868197812B96EFE0FB
:102900000C94EE159837B9F774FC05C020E130E05F
:102910000FC0689484F8689482F8F8CF74FE03C0FE
:10292000872D8660882E20E132E002C028E030E06A
:10293000F80187FE10C061917191819191918F0191
:10294000FE0131965F01AF010E9471158A19A82E10
:10295000E89487F840CF6191719180E090E0EFCFEB
:10296000882EBA2C84FE46CFFE01EA0DF11D80812F
:10297000803309F043C0282D297E822E83FC0EC0AF
:1029800080FE4FC09A2CB61418F4960C9B18B62CE7
:10299000862D8B196B1408F480E0B80EB61408F07D
:1029A00042C06B1884FE41C0B60180E390E00E94F3
:1029B000411582FE09C088E590E081FC02C088E7ED
:1029C00090E0B6010E944115A914D8F1AA94B12C47
:1029D0004FEFA41AB40ACE0101964C01A80EB91EFD
:1029E000F50182915F01B60190E00E9441158A14C1
:1029F0009B04B1F71ECFB92C882EB6CF82FC02C043
:102A0000B394BCCFB394B394B9CFB92C882EF2CE83
:102A1000B60180E290E00E94411573947614C0F3F1
:102A2000B7CF7B2CFBCF612CBDCF882D867881154D
:102A300059F280E281FC8BE287FC8DE2B60190E0E6
:102A4000C1CFB60180E390E00E9441159A94BCCFBB
:102A50008FEF9FEF53CFFC01059061507040011044
:102A6000D8F7809590958E0F9F1F0895FC016150B7
:102A7000704001900110D8F7809590958E0F9F1FA0
:102A800008950F931F93CF93DF93182F092FEB0116
:102A90008B8181FD09C01FEF0FEF812F902FDF91F8
:102AA000CF911F910F91089582FF14C02E813F8115
:102AB0008C819D81281739073CF4E881F981CF0189
:102AC00001969983888310838E819F8101969F83CD
:102AD0008E83E3CFE885F985812F0995892BA1F3B2
:102AE000DACFFA01AA27283051F1203181F1E89498
:102AF0006F936E7F6E5F7F4F8F4F9F4FAF4FB1E0F1
:102B00003ED0B4E03CD0670F781F891F9A1FA11DEB
:102B1000680F791F8A1F911DA11D6A0F711D811DEC
:102B2000911DA11D20D009F468943F912AE0269FB1
:102B300011243019305D3193DEF6CF010895462F10
:102B40004770405D4193B3E00FD0C9F7F6CF462FF1
:102B50004F70405D4A3318F0495D31FD405241935A
:102B600002D0A9F7EACFB4E0A69597958795779517
:102B70006795BA95C9F700976105710508959B019E
:102B8000AC010A2E06945795479537952795BA9527
:102B9000C9F7620F731F841F951FA01D08952F9200
:102BA0003F924F925F926F927F928F929F92AF92DD
:102BB000BF92CF92DF92EF92FF920F931F93CF932A
:102BC000DF93CDB7DEB7CA1BDB0B0FB6F894DEBFC1
:102BD0000FBECDBF09942A88398848885F846E84E7
:102BE0007D848C849B84AA84B984C884DF80EE8031
:102BF000FD800C811B81AA81B981CE0FD11D0FB63A
:102C0000F894DEBF0FBECDBFED010895F894FFCF5D
:102C1000084AD73B3BCE016E84BCBFFDC12F3D6C43
:102C200074319ABD56833DDA3D00C77F11BED9E4A9
:0E2C3000BB4C3E916BAAAABE000000803F0084
:102C3E00496E696369616E646F20546573746520B3
:102C4E00646520636F6D756E69636163616F2E2EAF
:102C5E002E0D0A004D50553630353020636F6E659F
:102C6E00637461646F20636F6D2073756365737336
:102C7E006F210D0A0043616C696272616E646F2E82
:102C8E002E2E0046616C6861206E6120636F6E654A
:102C9E0078616F206669736963612E0D0A00416366
:102CAE003A20583A256C642E25316C6420593A2509
:102CBE006C642E25316C64205A3A256C642E2531B5
:102CCE006C64207C204769726F3A20583A256C64F8
:102CDE002E25316C6420593A256C642E25316C6496
:102CEE00205A3A256C642E25316C64207C20457563
:102CFE006C65723A20503A256C642E25316C642036
:102D0E00523A256C642E25316C6420593A256C6438
:102D1E002E25316C640D0A00503A256C642E253137
:102D2E006C6400523A256C642E25316C6400593A5D
:0A2D3E00256C642E25316C64000042
:00000001FF
