:100000000C9434000C9451000C9451000C94510049
:100010000C9451000C9451000C9451000C9451001C
:100020000C9451000C9451000C9451000C9451000C
:100030000C9451000C9451000C9451000C945100FC
:100040000C9451000C9451000C94EC030C94120489
:100050000C9451000C9451000C9451000C945100DC
:100060000C9451000C94510011241FBECFEFD8E026
:10007000DEBFCDBF11E0A0E0B1E0E4E8F6E102C0F0
:1000800005900D92A43CB107D9F722E0A4ECB1E0B1
:1000900001C01D92A731B207E1F70E94AD040C9494
:1000A000400B0C940000BF92CF92DF92EF92FF9230
:1000B0000F931F93CF93DF93182FB62ED42FC52FF6
:1000C00080ED0E941003812F0E949D0385E38A9595
:1000D000F1F7000081ED0E9410030D2F1C2FEB2C77
:1000E000F12CC0E0D0E06701E1E0CE1AD108CE15D6
:1000F000DF0569F40E948E038B2DDF91CF911F9154
:100100000F91FF90EF90DF90CF90BF900895CC16A5
:10011000DD0639F40E94D403F80181938F01219602
:10012000E6CF0E94BC03F8CFFF920F931F93CF93AB
:10013000DF93C82F062FF42E152F80ED0E94100399
:100140008C2F0E949D03CF2DD12F0C0F1D2F111D21
:10015000C017D10739F4DF91CF911F910F91FF9014
:100160000C948E0389910E949D03F2CF61110C942F
:10017000530080E00895AB0161E00C9453006111DD
:100180000C9494000895CF93DF930F92CDB7DEB710
:100190006983AE014F5F5F4F61E00E9494000F9052
:1001A000DF91CF910895EF92FF920F931F93CF931A
:1001B000DF930F92CDB7DEB7082F162FE42EF22E65
:1001C0001982BE016F5F7F4F0E94BB00811549F10C
:1001D000812F8E19990BBC016F5F7F4F41E050E07A
:1001E00002C0440F551FEA94E2F741505109062E10
:1001F00001C0440F0A94EAF72F2D01C0220F6A951F
:10020000EAF7642F6095898168232423622B802F6D
:100210000F90DF91CF911F910F91FF90EF900C9471
:10022000C3000F90DF91CF911F910F91FF90EF903E
:100230000895EF92FF920F931F93CF93DF930F9246
:10024000CDB7DEB7162F042F7901411569F1BE0134
:100250006F5F7F4F0E94BB008115F1F0212F201BA3
:10026000330BB9016F5F7F4F41E050E002C0440F94
:10027000551F0A95E2F741505109062E01C0440F5F
:100280000A94EAF72981242330E002C035952795A6
:100290006A95E2F7F70120830F90DF91CF911F91CC
:1002A0000F91FF90EF90089580E0F6CFFF920F93AB
:1002B0001F93CF93DF930F92CDB7DEB7F62E8A014F
:1002C000BE016F5F7F4F0E94BB0021E030E001C0A4
:1002D000220FFA94EAF769816223F80160830F9094
:1002E000DF91CF911F910F91FF90089541110C94D0
:1002F000D3000895FF920F931F93CF93DF930F9234
:10030000CDB7DEB7182FF62E042FBE016F5F7F4FDB
:100310000E94BB0021E030E001C0220FFA94EAF70E
:100320006981011551F0622B812F0F90DF91CF91E0
:100330001F910F91FF900C94C30020956223F4CF7E
:100340001F93CF93DF93182FEB0180ED0E941003D2
:10035000812F0E949D038D2F0E949D038C2F0E9450
:100360009D03DF91CF911F910C948E0340E066E0D6
:100370008BE60C947A0141E066E08BE60C947A01FE
:1003800024EC31E046E066E085E70E941901909197
:10039000C40181E0943309F080E008950E940A03CB
:1003A00025E32A95F1F700008FEF91EE24E08150CC
:1003B00090402040E1F700C000000E94B6018FE3AA
:1003C0009CE90197F1F700C0000021E043E062E002
:1003D0008BE60E94D30023E043E062E08AE10E94C2
:1003E000D30064E089E10E94C30023E042E064E0BE
:1003F0008BE10E94D30020E042E064E08CE10C94A9
:10040000D3006F927F928F929F92AF92BF92CF92C2
:10041000DF92EF92FF920F931F93CF93DF934C01E4
:100420005B016A01E90144EC51E06EE08BE30E945C
:10043000B600E4ECF1E090818181D4018D939C932E
:1004400092818381D5018D939C9394818581D6017E
:100450008D939C93908581859983888392858385EC
:10046000D8018D939C9394858585F7019183808332
:10047000DF91CF911F910F91FF90EF90DF90CF9080
:10048000BF90AF909F908F907F906F9008952F9224
:100490003F924F925F926F927F928F929F92AF9214
:1004A000BF92CF92DF92EF92FF920F931F93CF9361
:1004B000DF93CDB7DEB72C970FB6F894DEBF0FBE33
:1004C000CDBF3C014B015A01690128011701CE0142
:1004D00001967C018E010D5F1F4F9E012B5F3F4FE8
:1004E000AE01495F5F4FBE01675F7F4F0A960E9472
:1004F00001026B857C85072E000C880B990B0E94EE
:10050000DF0620E030E040E858E30E946B07F3018B
:10051000608371838283938369857A85072E000CBB
:10052000880B990B0E94DF0620E030E040E858E39A
:100530000E946B07F40160837183828393836F81D0
:100540007885072E000C880B990B0E94DF0620E0AF
:1005500030E040E858E30E946B07F5016083718347
:10056000828393836D817E81665D7F4F072E000CB1
:10057000880B990B0E94DF0623E333E343E851E441
:100580000E946B06F60160837183828393836B8183
:100590007C8169507109072E000C880B990B0E9411
:1005A000DF0623E333E343E851E40E946B06F201E4
:1005B000608371838283938369817A81635E7F4FD5
:1005C000072E000C880B990B0E94DF0623E333E310
:1005D00043E851E40E946B06F101608371838283DA
:1005E00093832C960FB6F894DEBF0FBECDBFDF917C
:1005F000CF911F910F91FF90EF90DF90CF90BF9020
:10060000AF909F908F907F906F905F904F903F90B2
:100610002F9008951092B90088E48093B80008954F
:1006200094EA9093BC004FEF50E060E070E090914E
:10063000BC0097FD27C04150510961097109B8F705
:100640009091B900987F983011F09031F9F480932F
:10065000BB0084E88093BC008FEF90E0A0E0B0E0A6
:100660002091BC0027FD14C00197A109B109C0F772
:100670009091B900987F983119F081E0903409F495
:1006800080E00895452B462B472BD1F681E0089555
:10069000892B8A2B8B2B61F7F9CF44EA54E84093DE
:1006A000BC0020E030E09091BC0097FD06C02F5FB9
:1006B0003F4F211591E03907B1F79091B900987F2C
:1006C000983011F0903159F78093BB005093BC00E3
:1006D00020E030E09091BC0097FD06C02F5F3F4FB7
:1006E000211591E03907B1F79091B900987F9032C8
:1006F00011F0983581F494E99093BC0020E030E04B
:100700009091BC0094FFCBCF2F5F3F4F211591E01C
:100710003907B1F7C4CF08950C94100384E980938E
:10072000BC0080E090E02091BC0024FF05C0019651
:10073000811521E09207B9F708958093BB0084E802
:100740008093BC008FEF90E0A0E0B0E02091BC006F
:1007500027FD0CC00197A109B109C0F79091B9001C
:10076000987F81E0983239F480E00895892B8A2BB4
:100770008B2BA1F781E0089584EC8093BC008FEF70
:1007800090E0A0E0B0E02091BC0027FD07C00197F9
:10079000A109B109C0F78091BB000895892B8A2B6C
:1007A0008B2BC9F780E0089584E88093BC008FEF1D
:1007B00090E0A0E0B0E02091BC0027FD07C00197C9
:1007C000A109B109C0F78091BB000895892B8A2B3C
:1007D0008B2BC9F780E008952F932FB72F938F931A
:1007E0009F93EF93FF938091C0009091C600E0919A
:1007F000D401EF5FEF712091D3012E1789F088713A
:10080000E093D401F0E0E952FE4F90838093D2014F
:10081000FF91EF919F918F912F912FBF2F9118955D
:1008200082E0F4CF8F938FB78F939F93EF93FF93D3
:100830009091D6018091D501981799F0E091D5015A
:10084000EF5FEF71E093D501F0E0E950FE4F80815A
:100850008093C600FF91EF919F918F918FBF8F91F1
:1008600018958091C1008F7D8093C100F3CF9C01CA
:100870001092D6011092D5011092D4011092D3019A
:1008800097FF04C082E08093C0003F773093C5009B
:100890002093C40088E98093C10086E08093C20061
:1008A00008959091D4018091D301981791F0E0912F
:1008B000D301EF5FEF71E093D301F0E0E952FE4F17
:1008C00020818091D20190E0982F8827820F911D7E
:1008D000089580E091E008959091D6019F5F9F7107
:1008E0002091D5012917E1F3E92FF0E0E950FE4FFF
:1008F00080839093D6018091C10080628093C10073
:100900000895CF93DF93EC018991811103C0DF91AA
:10091000CF9108950E946C04F7CFCF93DF93EC0141
:10092000FE0184912196811103C0DF91CF9108953A
:100930000E946C04F5CF8091D4012091D30190E006
:100940004F96821B91096FE170E00E94D8070895CD
:100950008091D3018093D4010895CDB7DEB7C858F4
:10096000D1090FB6F894DEBF0FBECDBF87E690E089
:100970000E94370478940E94CE012FEF39E688E177
:10098000215030408040E1F700C0000080E091E05D
:100990000E94810480ED0E941003811197C184E2BE
:1009A00091E00E9481040E948E03812C80E4982EA5
:1009B000A12CB12C94EA492E512C612C712C24E6E7
:1009C000222E312C9E012B593F4F79018E0109595E
:1009D0001F4F2C5F3F4FAE0145595F4FBE0163591A
:1009E0007F4FCE0181599F4F0E940102E196AEAD2B
:1009F000BFADE19724E630E00E940B08A501940109
:100A00000E94EC0769017A01EB963FAF2EAFEB979E
:100A1000E1963FAF2EAFE197AF96AEADBFADAF97CA
:100A200024E630E00E940B08A50194010E94EC0727
:100A3000E5962CAF3DAF4EAF5FAFE597E3968EAD39
:100A40009FADE397ED969FAF8EAFED97AF963FAF1B
:100A50002EAFAF97AD96AEADBFADAD9724E630E00B
:100A60000E940B08A50194010E94EC07E9962CAFA7
:100A70003DAF4EAF5FAFE997E7960EAD1FADE7977D
:100A8000AD963FAF2EAFAD97AB96AEADBFADAB97CA
:100A900028EE33E00E940B08C358DF4F6883798348
:100AA0008A839B83CD57D040A996AEADBFADA997A1
:100AB0000E940B08CF57DF4F688379838A839B831B
:100AC000C158D040A796AEADBFADA7970E940B0806
:100AD000CB57DF4F688379838A839B83C558D04087
:100AE000A30192010E94EC0757FF07C05095409563
:100AF000309521953F4F4F4F5F4FCA01B90124E612
:100B000030E040E050E00E94EC079F938F937F938A
:100B10006F93CB57DF4F688179818A819B81C5585C
:100B2000D04020E130E440E050E00E94EC075F93C9
:100B30004F933F932F93CF57DF4F688179818A81FD
:100B40009B81C158D040A30192010E94EC0757FF3E
:100B500007C050954095309521953F4F4F4F5F4FBF
:100B6000CA01B90124E630E040E050E00E94EC0701
:100B70009F938F937F936F93CF57DF4F68817981D6
:100B80008A819B81C158D04020E130E440E050E0B0
:100B90000E94EC075F934F933F932F93C358DF4F0F
:100BA000688179818A819B81CD57D040A3019201D0
:100BB0000E94EC0757FF07C050954095309521954E
:100BC0003F4F4F4F5F4FCA01B90124E630E040E08C
:100BD00050E00E94EC079F938F937F936F93C358CD
:100BE000DF4F688179818A819B81CD57D04020E198
:100BF00030E440E050E00E94EC075F934F933F9356
:100C00002F93E7968EAD9FADE79717FF03C09195A1
:100C100081959109B1010E94D8079F938F93C801D4
:100C2000B1010E94D8077F936F93E3968EAD9FAD7D
:100C3000E397ED962EAD3FADED9737FF03C091954D
:100C400081959109B1010E94D8079F938F93ED96EA
:100C50008EAD9FADED97B1010E94D8077F936F9342
:100C6000C601EB962EAD3FADEB9737FF04C088274A
:100C700099278C199D09B1010E94D8079F938F93E2
:100C8000EB968EAD9FADEB97B1010E94D8077F9395
:100C90006F9380E691E09F938F93CE0101969F938F
:100CA0008F930E9457080FB6F894DEBF0FBECDBFDA
:100CB000CE0101960E9481043FEF85EA9EE031500B
:100CC00080409040E1F700C000007CCE85E491E0D8
:100CD0000E948104FFCF0E947F060C9431070E947E
:100CE0002A0758F00E94230740F029F45F3F29F0BB
:100CF0000C941A0751110C9465070C9420070E945C
:100D0000420768F39923B1F3552391F3951B550BD3
:100D1000BB27AA2762177307840738F09F5F5F4FCE
:100D2000220F331F441FAA1FA9F335D00E2E3AF00D
:100D3000E0E832D091505040E695001CCAF72BD025
:100D4000FE2F29D0660F771F881FBB1F2617370776
:100D50004807AB07B0E809F0BB0B802DBF01FF27A8
:100D600093585F4F3AF09E3F510578F00C941A0764
:100D70000C9465075F3FE4F3983ED4F3869577952E
:100D80006795B795F7959F5FC9F7880F911D969561
:100D9000879597F90895E1E0660F771F881FBB1FBD
:100DA000621773078407BA0720F0621B730B840B6A
:100DB000BA0BEE1F88F7E0950895E89409C097FBF9
:100DC0003EF490958095709561957F4F8F4F9F4F22
:100DD0009923A9F0F92F96E9BB279395F695879566
:100DE00077956795B795F111F8CFFAF4BB0F11F429
:100DF00060FF1BC06F5F7F4F8F4F9F4F16C08823D0
:100E000011F096E911C0772321F09EE8872F762F05
:100E100005C0662371F096E8862F70E060E02AF046
:100E20009A95660F771F881FDAF7880F9695879532
:100E300097F9089597F99F6780E870E060E008955A
:100E40009FEF80EC089500240A94161617061806E2
:100E50000906089500240A941216130614060506BE
:100E60000895092E0394000C11F4882352F0BB0F4F
:100E700040F4BF2B11F460FF04C06F5F7F4F8F4FB2
:100E80009F4F089557FD9058440F551F59F05F3FED
:100E900071F04795880F97FB991F61F09F3F79F09C
:100EA00087950895121613061406551FF2CF46951E
:100EB000F1DF08C0161617061806991FF1CF8695A0
:100EC0007105610508940895E894BB276627772784
:100ED000CB0197F908950E947E070C9431070E9478
:100EE000230738F00E942A0720F0952311F00C9474
:100EF0001A070C94200711240C9465070E944207DE
:100F000070F3959FC1F3950F50E0551F629FF0015C
:100F1000729FBB27F00DB11D639FAA27F00DB11D75
:100F2000AA1F649F6627B00DA11D661F829F2227FE
:100F3000B00DA11D621F739FB00DA11D621F839F85
:100F4000A00D611D221F749F3327A00D611D231F5B
:100F5000849F600D211D822F762F6A2F11249F57A9
:100F600050409AF0F1F088234AF0EE0FFF1FBB1FAC
:100F7000661F771F881F91505040A9F79E3F51056B
:100F800080F00C941A070C9465075F3FE4F3983ED9
:100F9000D4F3869577956795B795F795E7959F5F15
:100FA000C1F7FE2B880F911D9695879597F90895A7
:100FB00097FB072E16F4009407D077FD09D00E9406
:100FC000120807FC05D03EF4909581959F4F089537
:100FD000709561957F4F0895052E97FB1EF4009440
:100FE0000E94030857FD07D00E94260807FC03D083
:100FF0004EF40C94030850954095309521953F4F41
:101000004F4F5F4F089590958095709561957F4FF4
:101010008F4F9F4F08950E944808B7FF0895821B85
:10102000930B0895AA1BBB1B51E107C0AA1FBB1F4E
:10103000A617B70710F0A61BB70B881F991F5A9564
:10104000A9F780959095BC01CD010895A1E21A2ED3
:10105000AA1BBB1BFD010DC0AA1FBB1FEE1FFF1F5C
:10106000A217B307E407F50720F0A21BB30BE40BAC
:10107000F50B661F771F881F991F1A9469F76095F3
:101080007095809590959B01AC01BD01CF010895AD
:10109000A29FB001B39FC001A39F700D811D1124B9
:1010A000911DB29F700D811D1124911D0895AEE018
:1010B000B0E0EDE5F8E00C94170B0D891E8986E091
:1010C0008C831A8309838FEF9FE79E838D83AE0104
:1010D000475E5F4F6F89788DCE0101960E947A0836
:1010E0002F813885020F131FF80110822E96E4E03D
:1010F0000C94330BABE0B0E0E0E8F8E00C940C0BA0
:101100006C017B018A01FC0117821682838181FFB9
:10111000D9C19AE0592EF6012381F70123FD85916B
:1011200023FF81917F01811509F41FC1853239F4B4
:1011300023FD959123FF91917F01953229F4B6010A
:1011400090E00E947B0AE7CF30E0912C612C712C5B
:10115000F0E27F1640F59B32D9F058F49032D1F08E
:101160009332F1F09E3299F576FCFFC0689476F8E0
:1011700006C09D3291F09033C1F4689470F8F70185
:1011800023FD959123FF91917F019111E1CF29C01A
:10119000689471F8689472F8F2CF689473F8EFCF9E
:1011A000689474F8ECCF77FC1CC080ED890F8A300E
:1011B000C8F676FE05C0959C800D1124982EDFCFD1
:1011C000659C800D1124682E689475F8D8CF9C36E4
:1011D00019F4689477F8D3CF9C3409F44BC098364F
:1011E00071F2892F8F7D8554833008F445C0933682
:1011F00009F466C0933709F469C0933509F475C0E2
:10120000943619F0993609F09FC0F80177FE95C021
:1012100061917191819191918F01272D2F76822E6D
:1012200097FF09C090958095709561957F4F8F4F7E
:101230009F4F689487F82AE030E0AE014F5F5F4F20
:101240005A010E94AB0A8A19A82E86FEC4C0882DB6
:101250008E7FA91408F0BEC084FE11C182FC05C1B6
:10126000F82DFE7E8F2EB92C882D8678811509F4F5
:10127000BFC000C131E083CF3115F9F0085F1F4FC7
:101280008FE3898388248394912CAE014F5F5F4F55
:101290005A01E89477F873FC03C086149104B0F106
:1012A00081149104D1F5611409F435CFB60180E2BF
:1012B00090E00E947B0A6A94F6CF0C5F1F4FE0CF4C
:1012C000F801808189830E5F1F4FDCCFF801A19068
:1012D000B1908F01692D70E076FC02C06FEF7FEF57
:1012E000C5010E94700A4C01D4CFF801A190B190C1
:1012F0008F01692D70E076FC02C06FEF7FEFC501B2
:101300000E94650A4C01689477F8C5CFB60180E267
:1013100090E00E947B0A6A94C0CFF50177FC85912A
:1013200077FE81915F01B60190E00E947B0A611017
:101330006A94F1E08F1A9108B3CF61917191072EF1
:10134000000C880B990B68CF872CE89484F82AE06E
:1013500030E0953739F1572D597F852E903799F028
:1013600058F49835A9F09F36D9F0F6018681978117
:101370002B96EFE00C94280B9837B9F774FC05C056
:1013800020E130E00FC0689484F8689482F8F8CFC8
:1013900074FE03C0872D8660882E20E132E002C0F3
:1013A00028E030E0F80187FE10C0619171918191D1
:1013B00091918F01FE0131965F01AF010E94AB0A4E
:1013C0008A19A82EE89487F840CF6191719180E046
:1013D00090E0EFCF882EBA2C84FE46CFFE01EA0DB6
:1013E000F11D8081803309F043C0282D297E822E93
:1013F00083FC0EC080FE4FC09A2CB61418F4960CD5
:101400009B18B62C862D8B196B1408F480E0B80E4F
:10141000B61408F042C06B1884FE41C0B60180E3E8
:1014200090E00E947B0A82FE09C088E590E081FC82
:1014300002C088E790E0B6010E947B0AA914D8F1A7
:10144000AA94B12C4FEFA41AB40ACE0101964C0114
:10145000A80EB91EF50182915F01B60190E00E94CD
:101460007B0A8A149B04B1F71ECFB92C882EB6CF05
:1014700082FC02C0B394BCCFB394B394B9CFB92C5F
:10148000882EF2CEB60180E290E00E947B0A73942F
:101490007614C0F3B7CF7B2CFBCF612CBDCF882D4A
:1014A0008678811559F280E281FC8BE287FC8DE21F
:1014B000B60190E0C1CFB60180E390E00E947B0AC4
:1014C0009A94BCCF8FEF9FEF53CFFC0105906150F2
:1014D00070400110D8F7809590958E0F9F1F08954A
:1014E000FC016150704001900110D8F780959095F3
:1014F0008E0F9F1F08950F931F93CF93DF93182F85
:10150000092FEB018B8181FD09C01FEF0FEF812FA8
:10151000902FDF91CF911F910F91089582FF14C0FA
:101520002E813F818C819D81281739073CF4E88109
:10153000F981CF0101969983888310838E819F81E1
:1015400001969F838E83E3CFE885F985812F0995E6
:10155000892BA1F3DACFFA01AA27283051F12031E3
:1015600081F1E8946F936E7F6E5F7F4F8F4F9F4F37
:10157000AF4FB1E03ED0B4E03CD0670F781F891F79
:101580009A1FA11D680F791F8A1F911DA11D6A0F47
:10159000711D811D911DA11D20D009F468943F91FA
:1015A0002AE0269F11243019305D3193DEF6CF01F9
:1015B0000895462F4770405D4193B3E00FD0C9F7BF
:1015C000F6CF462F4F70405D4A3318F0495D31FD2C
:1015D0004052419302D0A9F7EACFB4E0A69597957F
:1015E000879577956795BA95C9F700976105710555
:1015F00008959B01AC010A2E06945795479537959F
:101600002795BA95C9F7620F731F841F951FA01DF8
:1016100008952F923F924F925F926F927F928F9296
:101620009F92AF92BF92CF92DF92EF92FF920F9371
:101630001F93CF93DF93CDB7DEB7CA1BDB0B0FB67B
:10164000F894DEBF0FBECDBF09942A883988488838
:101650005F846E847D848C849B84AA84B984C884CE
:10166000DF80EE80FD800C811B81AA81B981CE0FC5
:10167000D11D0FB6F894DEBF0FBECDBFED010895AA
:04168000F894FFCF0C
:10168400496E696369616E646F2054657374652083
:10169400646520636F6D756E69636163616F2E2E7F
:1016A4002E0D0A004D50553630353020636F6E656F
:1016B400637461646F20636F6D2073756365737306
:1016C4006F210D0A0046616C6861206E6120636FB2
:1016D4006E6578616F206669736963612E0D0A0017
:1016E400416363656C3A2041783A25642E25303293
:1016F400642041793A25642E2530326420417A3AB7
:1017040025642E25303264206D2F73C2B27C2047AD
:1017140079726F3A2047783A256C642E2530326C02
:10172400642047793A256C642E2530326C64204756
:101734007A3A256C642E2530326C6420C2B02F7343
:041744000D0A00008A
:00000001FF
